{
  "_format": "hh-sol-artifact-1",
  "contractName": "NFTMarket",
  "sourceName": "contracts/NFTMarket.sol",
  "abi": [
    {
      "inputs": [],
      "stateMutability": "nonpayable",
      "type": "constructor"
    },
    {
      "anonymous": false,
      "inputs": [
        {
          "indexed": true,
          "internalType": "address",
          "name": "owner",
          "type": "address"
        },
        {
          "indexed": true,
          "internalType": "address",
          "name": "approved",
          "type": "address"
        },
        {
          "indexed": true,
          "internalType": "uint256",
          "name": "tokenId",
          "type": "uint256"
        }
      ],
      "name": "Approval",
      "type": "event"
    },
    {
      "anonymous": false,
      "inputs": [
        {
          "indexed": true,
          "internalType": "address",
          "name": "owner",
          "type": "address"
        },
        {
          "indexed": true,
          "internalType": "address",
          "name": "operator",
          "type": "address"
        },
        {
          "indexed": false,
          "internalType": "bool",
          "name": "approved",
          "type": "bool"
        }
      ],
      "name": "ApprovalForAll",
      "type": "event"
    },
    {
      "anonymous": false,
      "inputs": [
        {
          "indexed": true,
          "internalType": "uint256",
          "name": "tokenId",
          "type": "uint256"
        },
        {
          "indexed": false,
          "internalType": "address",
          "name": "seller",
          "type": "address"
        },
        {
          "indexed": false,
          "internalType": "address",
          "name": "owner",
          "type": "address"
        },
        {
          "indexed": false,
          "internalType": "uint256",
          "name": "price",
          "type": "uint256"
        },
        {
          "indexed": false,
          "internalType": "bool",
          "name": "sold",
          "type": "bool"
        }
      ],
      "name": "MarketItemCreated",
      "type": "event"
    },
    {
      "anonymous": false,
      "inputs": [
        {
          "indexed": true,
          "internalType": "address",
          "name": "from",
          "type": "address"
        },
        {
          "indexed": true,
          "internalType": "address",
          "name": "to",
          "type": "address"
        },
        {
          "indexed": true,
          "internalType": "uint256",
          "name": "tokenId",
          "type": "uint256"
        }
      ],
      "name": "Transfer",
      "type": "event"
    },
    {
      "inputs": [
        {
          "internalType": "address",
          "name": "to",
          "type": "address"
        },
        {
          "internalType": "uint256",
          "name": "tokenId",
          "type": "uint256"
        }
      ],
      "name": "approve",
      "outputs": [],
      "stateMutability": "nonpayable",
      "type": "function"
    },
    {
      "inputs": [
        {
          "internalType": "address",
          "name": "owner",
          "type": "address"
        }
      ],
      "name": "balanceOf",
      "outputs": [
        {
          "internalType": "uint256",
          "name": "",
          "type": "uint256"
        }
      ],
      "stateMutability": "view",
      "type": "function"
    },
    {
      "inputs": [
        {
          "internalType": "uint256",
          "name": "tokenId",
          "type": "uint256"
        }
      ],
      "name": "createMarketSale",
      "outputs": [],
      "stateMutability": "payable",
      "type": "function"
    },
    {
      "inputs": [
        {
          "internalType": "string",
          "name": "tokenURI",
          "type": "string"
        },
        {
          "internalType": "uint256",
          "name": "price",
          "type": "uint256"
        }
      ],
      "name": "createToken",
      "outputs": [
        {
          "internalType": "uint256",
          "name": "",
          "type": "uint256"
        }
      ],
      "stateMutability": "payable",
      "type": "function"
    },
    {
      "inputs": [],
      "name": "fetchItemsListed",
      "outputs": [
        {
          "components": [
            {
              "internalType": "uint256",
              "name": "tokenId",
              "type": "uint256"
            },
            {
              "internalType": "address payable",
              "name": "seller",
              "type": "address"
            },
            {
              "internalType": "address payable",
              "name": "owner",
              "type": "address"
            },
            {
              "internalType": "uint256",
              "name": "price",
              "type": "uint256"
            },
            {
              "internalType": "bool",
              "name": "sold",
              "type": "bool"
            }
          ],
          "internalType": "struct NFTMarket.MarketItem[]",
          "name": "",
          "type": "tuple[]"
        }
      ],
      "stateMutability": "view",
      "type": "function"
    },
    {
      "inputs": [],
      "name": "fetchMarketItems",
      "outputs": [
        {
          "components": [
            {
              "internalType": "uint256",
              "name": "tokenId",
              "type": "uint256"
            },
            {
              "internalType": "address payable",
              "name": "seller",
              "type": "address"
            },
            {
              "internalType": "address payable",
              "name": "owner",
              "type": "address"
            },
            {
              "internalType": "uint256",
              "name": "price",
              "type": "uint256"
            },
            {
              "internalType": "bool",
              "name": "sold",
              "type": "bool"
            }
          ],
          "internalType": "struct NFTMarket.MarketItem[]",
          "name": "",
          "type": "tuple[]"
        }
      ],
      "stateMutability": "view",
      "type": "function"
    },
    {
      "inputs": [],
      "name": "fetchMyNFTs",
      "outputs": [
        {
          "components": [
            {
              "internalType": "uint256",
              "name": "tokenId",
              "type": "uint256"
            },
            {
              "internalType": "address payable",
              "name": "seller",
              "type": "address"
            },
            {
              "internalType": "address payable",
              "name": "owner",
              "type": "address"
            },
            {
              "internalType": "uint256",
              "name": "price",
              "type": "uint256"
            },
            {
              "internalType": "bool",
              "name": "sold",
              "type": "bool"
            }
          ],
          "internalType": "struct NFTMarket.MarketItem[]",
          "name": "",
          "type": "tuple[]"
        }
      ],
      "stateMutability": "view",
      "type": "function"
    },
    {
      "inputs": [
        {
          "internalType": "uint256",
          "name": "tokenId",
          "type": "uint256"
        }
      ],
      "name": "getApproved",
      "outputs": [
        {
          "internalType": "address",
          "name": "",
          "type": "address"
        }
      ],
      "stateMutability": "view",
      "type": "function"
    },
    {
      "inputs": [],
      "name": "getListingPrice",
      "outputs": [
        {
          "internalType": "uint256",
          "name": "",
          "type": "uint256"
        }
      ],
      "stateMutability": "view",
      "type": "function"
    },
    {
      "inputs": [],
      "name": "getOwner",
      "outputs": [
        {
          "internalType": "address",
          "name": "",
          "type": "address"
        }
      ],
      "stateMutability": "view",
      "type": "function"
    },
    {
      "inputs": [
        {
          "internalType": "address",
          "name": "owner",
          "type": "address"
        },
        {
          "internalType": "address",
          "name": "operator",
          "type": "address"
        }
      ],
      "name": "isApprovedForAll",
      "outputs": [
        {
          "internalType": "bool",
          "name": "",
          "type": "bool"
        }
      ],
      "stateMutability": "view",
      "type": "function"
    },
    {
      "inputs": [],
      "name": "name",
      "outputs": [
        {
          "internalType": "string",
          "name": "",
          "type": "string"
        }
      ],
      "stateMutability": "view",
      "type": "function"
    },
    {
      "inputs": [
        {
          "internalType": "uint256",
          "name": "tokenId",
          "type": "uint256"
        }
      ],
      "name": "ownerOf",
      "outputs": [
        {
          "internalType": "address",
          "name": "",
          "type": "address"
        }
      ],
      "stateMutability": "view",
      "type": "function"
    },
    {
      "inputs": [
        {
          "internalType": "uint256",
          "name": "tokenId",
          "type": "uint256"
        },
        {
          "internalType": "uint256",
          "name": "price",
          "type": "uint256"
        }
      ],
      "name": "resellToken",
      "outputs": [],
      "stateMutability": "payable",
      "type": "function"
    },
    {
      "inputs": [
        {
          "internalType": "address",
          "name": "from",
          "type": "address"
        },
        {
          "internalType": "address",
          "name": "to",
          "type": "address"
        },
        {
          "internalType": "uint256",
          "name": "tokenId",
          "type": "uint256"
        }
      ],
      "name": "safeTransferFrom",
      "outputs": [],
      "stateMutability": "nonpayable",
      "type": "function"
    },
    {
      "inputs": [
        {
          "internalType": "address",
          "name": "from",
          "type": "address"
        },
        {
          "internalType": "address",
          "name": "to",
          "type": "address"
        },
        {
          "internalType": "uint256",
          "name": "tokenId",
          "type": "uint256"
        },
        {
          "internalType": "bytes",
          "name": "_data",
          "type": "bytes"
        }
      ],
      "name": "safeTransferFrom",
      "outputs": [],
      "stateMutability": "nonpayable",
      "type": "function"
    },
    {
      "inputs": [
        {
          "internalType": "address",
          "name": "operator",
          "type": "address"
        },
        {
          "internalType": "bool",
          "name": "approved",
          "type": "bool"
        }
      ],
      "name": "setApprovalForAll",
      "outputs": [],
      "stateMutability": "nonpayable",
      "type": "function"
    },
    {
      "inputs": [
        {
          "internalType": "bytes4",
          "name": "interfaceId",
          "type": "bytes4"
        }
      ],
      "name": "supportsInterface",
      "outputs": [
        {
          "internalType": "bool",
          "name": "",
          "type": "bool"
        }
      ],
      "stateMutability": "view",
      "type": "function"
    },
    {
      "inputs": [],
      "name": "symbol",
      "outputs": [
        {
          "internalType": "string",
          "name": "",
          "type": "string"
        }
      ],
      "stateMutability": "view",
      "type": "function"
    },
    {
      "inputs": [
        {
          "internalType": "uint256",
          "name": "tokenId",
          "type": "uint256"
        }
      ],
      "name": "tokenURI",
      "outputs": [
        {
          "internalType": "string",
          "name": "",
          "type": "string"
        }
      ],
      "stateMutability": "view",
      "type": "function"
    },
    {
      "inputs": [
        {
          "internalType": "address",
          "name": "from",
          "type": "address"
        },
        {
          "internalType": "address",
          "name": "to",
          "type": "address"
        },
        {
          "internalType": "uint256",
          "name": "tokenId",
          "type": "uint256"
        }
      ],
      "name": "transferFrom",
      "outputs": [],
      "stateMutability": "nonpayable",
      "type": "function"
    },
    {
      "inputs": [
        {
          "internalType": "uint256",
          "name": "_listingPrice",
          "type": "uint256"
        }
      ],
      "name": "updateListingPrice",
      "outputs": [],
      "stateMutability": "payable",
      "type": "function"
    }
  ],
  "bytecode": "0x60806040526658d15e176280006009553480156200001c57600080fd5b506040518060400160405280601081526020017f4d657461766572736520546f6b656e73000000000000000000000000000000008152506040518060400160405280600481526020017f4d455454000000000000000000000000000000000000000000000000000000008152508160009080519060200190620000a192919062000104565b508060019080519060200190620000ba92919062000104565b50505033600a60006101000a81548173ffffffffffffffffffffffffffffffffffffffff021916908373ffffffffffffffffffffffffffffffffffffffff16021790555062000219565b8280546200011290620001b4565b90600052602060002090601f01602090048101928262000136576000855562000182565b82601f106200015157805160ff191683800117855562000182565b8280016001018555821562000182579182015b828111156200018157825182559160200191906001019062000164565b5b50905062000191919062000195565b5090565b5b80821115620001b057600081600090555060010162000196565b5090565b60006002820490506001821680620001cd57607f821691505b60208210811415620001e457620001e3620001ea565b5b50919050565b7f4e487b7100000000000000000000000000000000000000000000000000000000600052602260045260246000fd5b6143c280620002296000396000f3fe6080604052600436106101355760003560e01c806370a08231116100ab578063ae677aa31161006f578063ae677aa31461042f578063b88d4fde1461044b578063be9af53614610474578063c87b56dd14610490578063e219fc75146104cd578063e985e9c5146104e957610135565b806370a082311461034357806372b3b62014610380578063893d20e8146103b057806395d89b41146103db578063a22cb4651461040657610135565b806312e85585116100fd57806312e8558514610233578063202e37401461025e57806323b872dd1461028957806342842e0e146102b257806345f8fa80146102db5780636352211e1461030657610135565b806301ffc9a71461013a57806306fdde0314610177578063081812fc146101a2578063095ea7b3146101df5780630f08efe014610208575b600080fd5b34801561014657600080fd5b50610161600480360381019061015c9190612f02565b610526565b60405161016e91906135dc565b60405180910390f35b34801561018357600080fd5b5061018c610608565b60405161019991906135f7565b60405180910390f35b3480156101ae57600080fd5b506101c960048036038101906101c49190612fa8565b61069a565b6040516101d6919061350e565b60405180910390f35b3480156101eb57600080fd5b5061020660048036038101906102019190612ec6565b61071f565b005b34801561021457600080fd5b5061021d610837565b60405161022a91906135ba565b60405180910390f35b34801561023f57600080fd5b50610248610aec565b60405161025591906138d9565b60405180910390f35b34801561026a57600080fd5b50610273610af6565b60405161028091906135ba565b60405180910390f35b34801561029557600080fd5b506102b060048036038101906102ab9190612dc0565b610e30565b005b3480156102be57600080fd5b506102d960048036038101906102d49190612dc0565b610e90565b005b3480156102e757600080fd5b506102f0610eb0565b6040516102fd91906135ba565b60405180910390f35b34801561031257600080fd5b5061032d60048036038101906103289190612fa8565b6111ea565b60405161033a919061350e565b60405180910390f35b34801561034f57600080fd5b5061036a60048036038101906103659190612d5b565b61129c565b60405161037791906138d9565b60405180910390f35b61039a60048036038101906103959190612f54565b611354565b6040516103a791906138d9565b60405180910390f35b3480156103bc57600080fd5b506103c5611396565b6040516103d2919061350e565b60405180910390f35b3480156103e757600080fd5b506103f06113c0565b6040516103fd91906135f7565b60405180910390f35b34801561041257600080fd5b5061042d60048036038101906104289190612e8a565b611452565b005b61044960048036038101906104449190612fa8565b611468565b005b34801561045757600080fd5b50610472600480360381019061046d9190612e0f565b611502565b005b61048e60048036038101906104899190612fa8565b611564565b005b34801561049c57600080fd5b506104b760048036038101906104b29190612fa8565b6117a2565b6040516104c491906135f7565b60405180910390f35b6104e760048036038101906104e29190612fd1565b6118f4565b005b3480156104f557600080fd5b50610510600480360381019061050b9190612d84565b611ae9565b60405161051d91906135dc565b60405180910390f35b60007f80ac58cd000000000000000000000000000000000000000000000000000000007bffffffffffffffffffffffffffffffffffffffffffffffffffffffff1916827bffffffffffffffffffffffffffffffffffffffffffffffffffffffff191614806105f157507f5b5e139f000000000000000000000000000000000000000000000000000000007bffffffffffffffffffffffffffffffffffffffffffffffffffffffff1916827bffffffffffffffffffffffffffffffffffffffffffffffffffffffff1916145b80610601575061060082611b7d565b5b9050919050565b60606000805461061790613b7a565b80601f016020809104026020016040519081016040528092919081815260200182805461064390613b7a565b80156106905780601f1061066557610100808354040283529160200191610690565b820191906000526020600020905b81548152906001019060200180831161067357829003601f168201915b5050505050905090565b60006106a582611be7565b6106e4576040517f08c379a00000000000000000000000000000000000000000000000000000000081526004016106db906137f9565b60405180910390fd5b6004600083815260200190815260200160002060009054906101000a900473ffffffffffffffffffffffffffffffffffffffff169050919050565b600061072a826111ea565b90508073ffffffffffffffffffffffffffffffffffffffff168373ffffffffffffffffffffffffffffffffffffffff16141561079b576040517f08c379a000000000000000000000000000000000000000000000000000000000815260040161079290613839565b60405180910390fd5b8073ffffffffffffffffffffffffffffffffffffffff166107ba611c53565b73ffffffffffffffffffffffffffffffffffffffff1614806107e957506107e8816107e3611c53565b611ae9565b5b610828576040517f08c379a000000000000000000000000000000000000000000000000000000000815260040161081f906136f9565b60405180910390fd5b6108328383611c5b565b505050565b606060006108456007611d14565b905060006108536008611d14565b61085d6007611d14565b6108679190613a7e565b90506000808267ffffffffffffffff8111156108ac577f4e487b7100000000000000000000000000000000000000000000000000000000600052604160045260246000fd5b6040519080825280602002602001820160405280156108e557816020015b6108d2612b22565b8152602001906001900390816108ca5790505b50905060005b84811015610ae1573073ffffffffffffffffffffffffffffffffffffffff16600b600060018461091b91906139f7565b815260200190815260200160002060020160009054906101000a900473ffffffffffffffffffffffffffffffffffffffff1673ffffffffffffffffffffffffffffffffffffffff161415610ace57600060018261097891906139f7565b90506000600b60008381526020019081526020016000209050806040518060a0016040529081600082015481526020016001820160009054906101000a900473ffffffffffffffffffffffffffffffffffffffff1673ffffffffffffffffffffffffffffffffffffffff1673ffffffffffffffffffffffffffffffffffffffff1681526020016002820160009054906101000a900473ffffffffffffffffffffffffffffffffffffffff1673ffffffffffffffffffffffffffffffffffffffff1673ffffffffffffffffffffffffffffffffffffffff168152602001600382015481526020016004820160009054906101000a900460ff161515151581525050848681518110610ab1577f4e487b7100000000000000000000000000000000000000000000000000000000600052603260045260246000fd5b6020026020010181905250600185610ac991906139f7565b945050505b8080610ad990613bdd565b9150506108eb565b508094505050505090565b6000600954905090565b60606000610b046007611d14565b905060008060005b83811015610bad573373ffffffffffffffffffffffffffffffffffffffff16600b6000600184610b3c91906139f7565b815260200190815260200160002060020160009054906101000a900473ffffffffffffffffffffffffffffffffffffffff1673ffffffffffffffffffffffffffffffffffffffff161415610b9a57600183610b9791906139f7565b92505b8080610ba590613bdd565b915050610b0c565b5060008267ffffffffffffffff811115610bf0577f4e487b7100000000000000000000000000000000000000000000000000000000600052604160045260246000fd5b604051908082528060200260200182016040528015610c2957816020015b610c16612b22565b815260200190600190039081610c0e5790505b50905060005b84811015610e25573373ffffffffffffffffffffffffffffffffffffffff16600b6000600184610c5f91906139f7565b815260200190815260200160002060020160009054906101000a900473ffffffffffffffffffffffffffffffffffffffff1673ffffffffffffffffffffffffffffffffffffffff161415610e12576000600182610cbc91906139f7565b90506000600b60008381526020019081526020016000209050806040518060a0016040529081600082015481526020016001820160009054906101000a900473ffffffffffffffffffffffffffffffffffffffff1673ffffffffffffffffffffffffffffffffffffffff1673ffffffffffffffffffffffffffffffffffffffff1681526020016002820160009054906101000a900473ffffffffffffffffffffffffffffffffffffffff1673ffffffffffffffffffffffffffffffffffffffff1673ffffffffffffffffffffffffffffffffffffffff168152602001600382015481526020016004820160009054906101000a900460ff161515151581525050848681518110610df5577f4e487b7100000000000000000000000000000000000000000000000000000000600052603260045260246000fd5b6020026020010181905250600185610e0d91906139f7565b945050505b8080610e1d90613bdd565b915050610c2f565b508094505050505090565b610e41610e3b611c53565b82611d22565b610e80576040517f08c379a0000000000000000000000000000000000000000000000000000000008152600401610e7790613879565b60405180910390fd5b610e8b838383611e00565b505050565b610eab83838360405180602001604052806000815250611502565b505050565b60606000610ebe6007611d14565b905060008060005b83811015610f67573373ffffffffffffffffffffffffffffffffffffffff16600b6000600184610ef691906139f7565b815260200190815260200160002060010160009054906101000a900473ffffffffffffffffffffffffffffffffffffffff1673ffffffffffffffffffffffffffffffffffffffff161415610f5457600183610f5191906139f7565b92505b8080610f5f90613bdd565b915050610ec6565b5060008267ffffffffffffffff811115610faa577f4e487b7100000000000000000000000000000000000000000000000000000000600052604160045260246000fd5b604051908082528060200260200182016040528015610fe357816020015b610fd0612b22565b815260200190600190039081610fc85790505b50905060005b848110156111df573373ffffffffffffffffffffffffffffffffffffffff16600b600060018461101991906139f7565b815260200190815260200160002060010160009054906101000a900473ffffffffffffffffffffffffffffffffffffffff1673ffffffffffffffffffffffffffffffffffffffff1614156111cc57600060018261107691906139f7565b90506000600b60008381526020019081526020016000209050806040518060a0016040529081600082015481526020016001820160009054906101000a900473ffffffffffffffffffffffffffffffffffffffff1673ffffffffffffffffffffffffffffffffffffffff1673ffffffffffffffffffffffffffffffffffffffff1681526020016002820160009054906101000a900473ffffffffffffffffffffffffffffffffffffffff1673ffffffffffffffffffffffffffffffffffffffff1673ffffffffffffffffffffffffffffffffffffffff168152602001600382015481526020016004820160009054906101000a900460ff1615151515815250508486815181106111af577f4e487b7100000000000000000000000000000000000000000000000000000000600052603260045260246000fd5b60200260200101819052506001856111c791906139f7565b945050505b80806111d790613bdd565b915050610fe9565b508094505050505090565b6000806002600084815260200190815260200160002060009054906101000a900473ffffffffffffffffffffffffffffffffffffffff169050600073ffffffffffffffffffffffffffffffffffffffff168173ffffffffffffffffffffffffffffffffffffffff161415611293576040517f08c379a000000000000000000000000000000000000000000000000000000000815260040161128a90613739565b60405180910390fd5b80915050919050565b60008073ffffffffffffffffffffffffffffffffffffffff168273ffffffffffffffffffffffffffffffffffffffff16141561130d576040517f08c379a000000000000000000000000000000000000000000000000000000000815260040161130490613719565b60405180910390fd5b600360008373ffffffffffffffffffffffffffffffffffffffff1673ffffffffffffffffffffffffffffffffffffffff168152602001908152602001600020549050919050565b60006113606007612067565b600061136c6007611d14565b9050611378338261207d565b6113828185612257565b61138c81846122cb565b8091505092915050565b6000600a60009054906101000a900473ffffffffffffffffffffffffffffffffffffffff16905090565b6060600180546113cf90613b7a565b80601f01602080910402602001604051908101604052809291908181526020018280546113fb90613b7a565b80156114485780601f1061141d57610100808354040283529160200191611448565b820191906000526020600020905b81548152906001019060200180831161142b57829003601f168201915b5050505050905090565b61146461145d611c53565b83836124ce565b5050565b3373ffffffffffffffffffffffffffffffffffffffff16600a60009054906101000a900473ffffffffffffffffffffffffffffffffffffffff1673ffffffffffffffffffffffffffffffffffffffff16146114f8576040517f08c379a00000000000000000000000000000000000000000000000000000000081526004016114ef90613899565b60405180910390fd5b8060098190555050565b61151361150d611c53565b83611d22565b611552576040517f08c379a000000000000000000000000000000000000000000000000000000000815260040161154990613879565b60405180910390fd5b61155e8484848461263b565b50505050565b6000600b60008381526020019081526020016000206003015490506000600b600084815260200190815260200160002060010160009054906101000a900473ffffffffffffffffffffffffffffffffffffffff1690508134146115fc576040517f08c379a00000000000000000000000000000000000000000000000000000000081526004016115f390613779565b60405180910390fd5b33600b600085815260200190815260200160002060020160006101000a81548173ffffffffffffffffffffffffffffffffffffffff021916908373ffffffffffffffffffffffffffffffffffffffff1602179055506001600b600085815260200190815260200160002060040160006101000a81548160ff0219169083151502179055506000600b600085815260200190815260200160002060010160006101000a81548173ffffffffffffffffffffffffffffffffffffffff021916908373ffffffffffffffffffffffffffffffffffffffff1602179055506116e06008612067565b6116eb303385611e00565b600a60009054906101000a900473ffffffffffffffffffffffffffffffffffffffff1673ffffffffffffffffffffffffffffffffffffffff166108fc6009549081150290604051600060405180830381858888f19350505050158015611755573d6000803e3d6000fd5b508073ffffffffffffffffffffffffffffffffffffffff166108fc349081150290604051600060405180830381858888f1935050505015801561179c573d6000803e3d6000fd5b50505050565b60606117ad82611be7565b6117ec576040517f08c379a00000000000000000000000000000000000000000000000000000000081526004016117e3906137b9565b60405180910390fd5b600060066000848152602001908152602001600020805461180c90613b7a565b80601f016020809104026020016040519081016040528092919081815260200182805461183890613b7a565b80156118855780601f1061185a57610100808354040283529160200191611885565b820191906000526020600020905b81548152906001019060200180831161186857829003601f168201915b505050505090506000611896612697565b90506000815114156118ac5781925050506118ef565b6000825111156118e15780826040516020016118c99291906134ea565b604051602081830303815290604052925050506118ef565b6118ea846126ae565b925050505b919050565b3373ffffffffffffffffffffffffffffffffffffffff16600b600084815260200190815260200160002060020160009054906101000a900473ffffffffffffffffffffffffffffffffffffffff1673ffffffffffffffffffffffffffffffffffffffff1614611998576040517f08c379a000000000000000000000000000000000000000000000000000000000815260040161198f906137d9565b60405180910390fd5b60095434146119dc576040517f08c379a00000000000000000000000000000000000000000000000000000000081526004016119d390613859565b60405180910390fd5b6000600b600084815260200190815260200160002060040160006101000a81548160ff02191690831515021790555080600b60008481526020019081526020016000206003018190555033600b600084815260200190815260200160002060010160006101000a81548173ffffffffffffffffffffffffffffffffffffffff021916908373ffffffffffffffffffffffffffffffffffffffff16021790555030600b600084815260200190815260200160002060020160006101000a81548173ffffffffffffffffffffffffffffffffffffffff021916908373ffffffffffffffffffffffffffffffffffffffff160217905550611ada6008612755565b611ae5333084611e00565b5050565b6000600560008473ffffffffffffffffffffffffffffffffffffffff1673ffffffffffffffffffffffffffffffffffffffff16815260200190815260200160002060008373ffffffffffffffffffffffffffffffffffffffff1673ffffffffffffffffffffffffffffffffffffffff16815260200190815260200160002060009054906101000a900460ff16905092915050565b60007f01ffc9a7000000000000000000000000000000000000000000000000000000007bffffffffffffffffffffffffffffffffffffffffffffffffffffffff1916827bffffffffffffffffffffffffffffffffffffffffffffffffffffffff1916149050919050565b60008073ffffffffffffffffffffffffffffffffffffffff166002600084815260200190815260200160002060009054906101000a900473ffffffffffffffffffffffffffffffffffffffff1673ffffffffffffffffffffffffffffffffffffffff1614159050919050565b600033905090565b816004600083815260200190815260200160002060006101000a81548173ffffffffffffffffffffffffffffffffffffffff021916908373ffffffffffffffffffffffffffffffffffffffff160217905550808273ffffffffffffffffffffffffffffffffffffffff16611cce836111ea565b73ffffffffffffffffffffffffffffffffffffffff167f8c5be1e5ebec7d5bd14f71427d1e84f3dd0314c0f7b2291e5b200ac8c7c3b92560405160405180910390a45050565b600081600001549050919050565b6000611d2d82611be7565b611d6c576040517f08c379a0000000000000000000000000000000000000000000000000000000008152600401611d63906136d9565b60405180910390fd5b6000611d77836111ea565b90508073ffffffffffffffffffffffffffffffffffffffff168473ffffffffffffffffffffffffffffffffffffffff161480611db95750611db88185611ae9565b5b80611df757508373ffffffffffffffffffffffffffffffffffffffff16611ddf8461069a565b73ffffffffffffffffffffffffffffffffffffffff16145b91505092915050565b8273ffffffffffffffffffffffffffffffffffffffff16611e20826111ea565b73ffffffffffffffffffffffffffffffffffffffff1614611e76576040517f08c379a0000000000000000000000000000000000000000000000000000000008152600401611e6d90613659565b60405180910390fd5b600073ffffffffffffffffffffffffffffffffffffffff168273ffffffffffffffffffffffffffffffffffffffff161415611ee6576040517f08c379a0000000000000000000000000000000000000000000000000000000008152600401611edd90613699565b60405180910390fd5b611ef18383836127b1565b611efc600082611c5b565b6001600360008573ffffffffffffffffffffffffffffffffffffffff1673ffffffffffffffffffffffffffffffffffffffff1681526020019081526020016000206000828254611f4c9190613a7e565b925050819055506001600360008473ffffffffffffffffffffffffffffffffffffffff1673ffffffffffffffffffffffffffffffffffffffff1681526020019081526020016000206000828254611fa391906139f7565b92505081905550816002600083815260200190815260200160002060006101000a81548173ffffffffffffffffffffffffffffffffffffffff021916908373ffffffffffffffffffffffffffffffffffffffff160217905550808273ffffffffffffffffffffffffffffffffffffffff168473ffffffffffffffffffffffffffffffffffffffff167fddf252ad1be2c89b69c2b068fc378daa952ba7f163c4a11628f55a4df523b3ef60405160405180910390a46120628383836127b6565b505050565b6001816000016000828254019250508190555050565b600073ffffffffffffffffffffffffffffffffffffffff168273ffffffffffffffffffffffffffffffffffffffff1614156120ed576040517f08c379a00000000000000000000000000000000000000000000000000000000081526004016120e490613799565b60405180910390fd5b6120f681611be7565b15612136576040517f08c379a000000000000000000000000000000000000000000000000000000000815260040161212d90613679565b60405180910390fd5b612142600083836127b1565b6001600360008473ffffffffffffffffffffffffffffffffffffffff1673ffffffffffffffffffffffffffffffffffffffff168152602001908152602001600020600082825461219291906139f7565b92505081905550816002600083815260200190815260200160002060006101000a81548173ffffffffffffffffffffffffffffffffffffffff021916908373ffffffffffffffffffffffffffffffffffffffff160217905550808273ffffffffffffffffffffffffffffffffffffffff16600073ffffffffffffffffffffffffffffffffffffffff167fddf252ad1be2c89b69c2b068fc378daa952ba7f163c4a11628f55a4df523b3ef60405160405180910390a4612253600083836127b6565b5050565b61226082611be7565b61229f576040517f08c379a000000000000000000000000000000000000000000000000000000000815260040161229690613759565b60405180910390fd5b806006600084815260200190815260200160002090805190602001906122c6929190612b7f565b505050565b6000811161230e576040517f08c379a0000000000000000000000000000000000000000000000000000000008152600401612305906138b9565b60405180910390fd5b6009543414612352576040517f08c379a000000000000000000000000000000000000000000000000000000000815260040161234990613859565b60405180910390fd5b6040518060a001604052808381526020013373ffffffffffffffffffffffffffffffffffffffff1681526020013073ffffffffffffffffffffffffffffffffffffffff16815260200182815260200160001515815250600b60008481526020019081526020016000206000820151816000015560208201518160010160006101000a81548173ffffffffffffffffffffffffffffffffffffffff021916908373ffffffffffffffffffffffffffffffffffffffff16021790555060408201518160020160006101000a81548173ffffffffffffffffffffffffffffffffffffffff021916908373ffffffffffffffffffffffffffffffffffffffff1602179055506060820151816003015560808201518160040160006101000a81548160ff02191690831515021790555090505061248b333084611e00565b817fb640004f1d14576d0c209e240cad0410e0d8c0c33a09375861fbadae2588a98d33308460006040516124c29493929190613529565b60405180910390a25050565b8173ffffffffffffffffffffffffffffffffffffffff168373ffffffffffffffffffffffffffffffffffffffff16141561253d576040517f08c379a0000000000000000000000000000000000000000000000000000000008152600401612534906136b9565b60405180910390fd5b80600560008573ffffffffffffffffffffffffffffffffffffffff1673ffffffffffffffffffffffffffffffffffffffff16815260200190815260200160002060008473ffffffffffffffffffffffffffffffffffffffff1673ffffffffffffffffffffffffffffffffffffffff16815260200190815260200160002060006101000a81548160ff0219169083151502179055508173ffffffffffffffffffffffffffffffffffffffff168373ffffffffffffffffffffffffffffffffffffffff167f17307eab39ab6107e8899845ad3d59bd9653f200f220920489ca2b5937696c318360405161262e91906135dc565b60405180910390a3505050565b612646848484611e00565b612652848484846127bb565b612691576040517f08c379a000000000000000000000000000000000000000000000000000000000815260040161268890613639565b60405180910390fd5b50505050565b606060405180602001604052806000815250905090565b60606126b982611be7565b6126f8576040517f08c379a00000000000000000000000000000000000000000000000000000000081526004016126ef90613819565b60405180910390fd5b6000612702612697565b90506000815111612722576040518060200160405280600081525061274d565b8061272c84612952565b60405160200161273d9291906134ea565b6040516020818303038152906040525b915050919050565b600081600001549050600081116127a1576040517f08c379a000000000000000000000000000000000000000000000000000000000815260040161279890613619565b60405180910390fd5b6001810382600001819055505050565b505050565b505050565b60006127dc8473ffffffffffffffffffffffffffffffffffffffff16612aff565b15612945578373ffffffffffffffffffffffffffffffffffffffff1663150b7a02612805611c53565b8786866040518563ffffffff1660e01b8152600401612827949392919061356e565b602060405180830381600087803b15801561284157600080fd5b505af192505050801561287257506040513d601f19601f8201168201806040525081019061286f9190612f2b565b60015b6128f5573d80600081146128a2576040519150601f19603f3d011682016040523d82523d6000602084013e6128a7565b606091505b506000815114156128ed576040517f08c379a00000000000000000000000000000000000000000000000000000000081526004016128e490613639565b60405180910390fd5b805181602001fd5b63150b7a0260e01b7bffffffffffffffffffffffffffffffffffffffffffffffffffffffff1916817bffffffffffffffffffffffffffffffffffffffffffffffffffffffff19161491505061294a565b600190505b949350505050565b6060600082141561299a576040518060400160405280600181526020017f30000000000000000000000000000000000000000000000000000000000000008152509050612afa565b600082905060005b600082146129cc5780806129b590613bdd565b915050600a826129c59190613a4d565b91506129a2565b60008167ffffffffffffffff811115612a0e577f4e487b7100000000000000000000000000000000000000000000000000000000600052604160045260246000fd5b6040519080825280601f01601f191660200182016040528015612a405781602001600182028036833780820191505090505b5090505b60008514612af357600182612a599190613a7e565b9150600a85612a689190613c26565b6030612a7491906139f7565b60f81b818381518110612ab0577f4e487b7100000000000000000000000000000000000000000000000000000000600052603260045260246000fd5b60200101907effffffffffffffffffffffffffffffffffffffffffffffffffffffffffffff1916908160001a905350600a85612aec9190613a4d565b9450612a44565b8093505050505b919050565b6000808273ffffffffffffffffffffffffffffffffffffffff163b119050919050565b6040518060a0016040528060008152602001600073ffffffffffffffffffffffffffffffffffffffff168152602001600073ffffffffffffffffffffffffffffffffffffffff168152602001600081526020016000151581525090565b828054612b8b90613b7a565b90600052602060002090601f016020900481019282612bad5760008555612bf4565b82601f10612bc657805160ff1916838001178555612bf4565b82800160010185558215612bf4579182015b82811115612bf3578251825591602001919060010190612bd8565b5b509050612c019190612c05565b5090565b5b80821115612c1e576000816000905550600101612c06565b5090565b6000612c35612c3084613919565b6138f4565b905082815260208101848484011115612c4d57600080fd5b612c58848285613b38565b509392505050565b6000612c73612c6e8461394a565b6138f4565b905082815260208101848484011115612c8b57600080fd5b612c96848285613b38565b509392505050565b600081359050612cad81614330565b92915050565b600081359050612cc281614347565b92915050565b600081359050612cd78161435e565b92915050565b600081519050612cec8161435e565b92915050565b600082601f830112612d0357600080fd5b8135612d13848260208601612c22565b91505092915050565b600082601f830112612d2d57600080fd5b8135612d3d848260208601612c60565b91505092915050565b600081359050612d5581614375565b92915050565b600060208284031215612d6d57600080fd5b6000612d7b84828501612c9e565b91505092915050565b60008060408385031215612d9757600080fd5b6000612da585828601612c9e565b9250506020612db685828601612c9e565b9150509250929050565b600080600060608486031215612dd557600080fd5b6000612de386828701612c9e565b9350506020612df486828701612c9e565b9250506040612e0586828701612d46565b9150509250925092565b60008060008060808587031215612e2557600080fd5b6000612e3387828801612c9e565b9450506020612e4487828801612c9e565b9350506040612e5587828801612d46565b925050606085013567ffffffffffffffff811115612e7257600080fd5b612e7e87828801612cf2565b91505092959194509250565b60008060408385031215612e9d57600080fd5b6000612eab85828601612c9e565b9250506020612ebc85828601612cb3565b9150509250929050565b60008060408385031215612ed957600080fd5b6000612ee785828601612c9e565b9250506020612ef885828601612d46565b9150509250929050565b600060208284031215612f1457600080fd5b6000612f2284828501612cc8565b91505092915050565b600060208284031215612f3d57600080fd5b6000612f4b84828501612cdd565b91505092915050565b60008060408385031215612f6757600080fd5b600083013567ffffffffffffffff811115612f8157600080fd5b612f8d85828601612d1c565b9250506020612f9e85828601612d46565b9150509250929050565b600060208284031215612fba57600080fd5b6000612fc884828501612d46565b91505092915050565b60008060408385031215612fe457600080fd5b6000612ff285828601612d46565b925050602061300385828601612d46565b9150509250929050565b60006130198383613464565b60a08301905092915050565b61302e81613ac4565b82525050565b61303d81613ab2565b82525050565b600061304e8261398b565b61305881856139b9565b93506130638361397b565b8060005b8381101561309457815161307b888261300d565b9750613086836139ac565b925050600181019050613067565b5085935050505092915050565b6130aa81613ad6565b82525050565b6130b981613ad6565b82525050565b60006130ca82613996565b6130d481856139ca565b93506130e4818560208601613b47565b6130ed81613d13565b840191505092915050565b6000613103826139a1565b61310d81856139db565b935061311d818560208601613b47565b61312681613d13565b840191505092915050565b600061313c826139a1565b61314681856139ec565b9350613156818560208601613b47565b80840191505092915050565b600061316f601b836139db565b915061317a82613d24565b602082019050919050565b60006131926032836139db565b915061319d82613d4d565b604082019050919050565b60006131b56025836139db565b91506131c082613d9c565b604082019050919050565b60006131d8601c836139db565b91506131e382613deb565b602082019050919050565b60006131fb6024836139db565b915061320682613e14565b604082019050919050565b600061321e6019836139db565b915061322982613e63565b602082019050919050565b6000613241602c836139db565b915061324c82613e8c565b604082019050919050565b60006132646038836139db565b915061326f82613edb565b604082019050919050565b6000613287602a836139db565b915061329282613f2a565b604082019050919050565b60006132aa6029836139db565b91506132b582613f79565b604082019050919050565b60006132cd602e836139db565b91506132d882613fc8565b604082019050919050565b60006132f06040836139db565b91506132fb82614017565b604082019050919050565b60006133136020836139db565b915061331e82614066565b602082019050919050565b60006133366031836139db565b91506133418261408f565b604082019050919050565b6000613359602a836139db565b9150613364826140de565b604082019050919050565b600061337c602c836139db565b91506133878261412d565b604082019050919050565b600061339f602f836139db565b91506133aa8261417c565b604082019050919050565b60006133c26021836139db565b91506133cd826141cb565b604082019050919050565b60006133e56024836139db565b91506133f08261421a565b604082019050919050565b60006134086031836139db565b915061341382614269565b604082019050919050565b600061342b6030836139db565b9150613436826142b8565b604082019050919050565b600061344e601c836139db565b915061345982614307565b602082019050919050565b60a08201600082015161347a60008501826134cc565b50602082015161348d6020850182613025565b5060408201516134a06040850182613025565b5060608201516134b360608501826134cc565b5060808201516134c660808501826130a1565b50505050565b6134d581613b2e565b82525050565b6134e481613b2e565b82525050565b60006134f68285613131565b91506135028284613131565b91508190509392505050565b60006020820190506135236000830184613034565b92915050565b600060808201905061353e6000830187613034565b61354b6020830186613034565b61355860408301856134db565b61356560608301846130b0565b95945050505050565b60006080820190506135836000830187613034565b6135906020830186613034565b61359d60408301856134db565b81810360608301526135af81846130bf565b905095945050505050565b600060208201905081810360008301526135d48184613043565b905092915050565b60006020820190506135f160008301846130b0565b92915050565b6000602082019050818103600083015261361181846130f8565b905092915050565b6000602082019050818103600083015261363281613162565b9050919050565b6000602082019050818103600083015261365281613185565b9050919050565b60006020820190508181036000830152613672816131a8565b9050919050565b60006020820190508181036000830152613692816131cb565b9050919050565b600060208201905081810360008301526136b2816131ee565b9050919050565b600060208201905081810360008301526136d281613211565b9050919050565b600060208201905081810360008301526136f281613234565b9050919050565b6000602082019050818103600083015261371281613257565b9050919050565b600060208201905081810360008301526137328161327a565b9050919050565b600060208201905081810360008301526137528161329d565b9050919050565b60006020820190508181036000830152613772816132c0565b9050919050565b60006020820190508181036000830152613792816132e3565b9050919050565b600060208201905081810360008301526137b281613306565b9050919050565b600060208201905081810360008301526137d281613329565b9050919050565b600060208201905081810360008301526137f28161334c565b9050919050565b600060208201905081810360008301526138128161336f565b9050919050565b6000602082019050818103600083015261383281613392565b9050919050565b60006020820190508181036000830152613852816133b5565b9050919050565b60006020820190508181036000830152613872816133d8565b9050919050565b60006020820190508181036000830152613892816133fb565b9050919050565b600060208201905081810360008301526138b28161341e565b9050919050565b600060208201905081810360008301526138d281613441565b9050919050565b60006020820190506138ee60008301846134db565b92915050565b60006138fe61390f565b905061390a8282613bac565b919050565b6000604051905090565b600067ffffffffffffffff82111561393457613933613ce4565b5b61393d82613d13565b9050602081019050919050565b600067ffffffffffffffff82111561396557613964613ce4565b5b61396e82613d13565b9050602081019050919050565b6000819050602082019050919050565b600081519050919050565b600081519050919050565b600081519050919050565b6000602082019050919050565b600082825260208201905092915050565b600082825260208201905092915050565b600082825260208201905092915050565b600081905092915050565b6000613a0282613b2e565b9150613a0d83613b2e565b9250827fffffffffffffffffffffffffffffffffffffffffffffffffffffffffffffffff03821115613a4257613a41613c57565b5b828201905092915050565b6000613a5882613b2e565b9150613a6383613b2e565b925082613a7357613a72613c86565b5b828204905092915050565b6000613a8982613b2e565b9150613a9483613b2e565b925082821015613aa757613aa6613c57565b5b828203905092915050565b6000613abd82613b0e565b9050919050565b6000613acf82613b0e565b9050919050565b60008115159050919050565b60007fffffffff0000000000000000000000000000000000000000000000000000000082169050919050565b600073ffffffffffffffffffffffffffffffffffffffff82169050919050565b6000819050919050565b82818337600083830152505050565b60005b83811015613b65578082015181840152602081019050613b4a565b83811115613b74576000848401525b50505050565b60006002820490506001821680613b9257607f821691505b60208210811415613ba657613ba5613cb5565b5b50919050565b613bb582613d13565b810181811067ffffffffffffffff82111715613bd457613bd3613ce4565b5b80604052505050565b6000613be882613b2e565b91507fffffffffffffffffffffffffffffffffffffffffffffffffffffffffffffffff821415613c1b57613c1a613c57565b5b600182019050919050565b6000613c3182613b2e565b9150613c3c83613b2e565b925082613c4c57613c4b613c86565b5b828206905092915050565b7f4e487b7100000000000000000000000000000000000000000000000000000000600052601160045260246000fd5b7f4e487b7100000000000000000000000000000000000000000000000000000000600052601260045260246000fd5b7f4e487b7100000000000000000000000000000000000000000000000000000000600052602260045260246000fd5b7f4e487b7100000000000000000000000000000000000000000000000000000000600052604160045260246000fd5b6000601f19601f8301169050919050565b7f436f756e7465723a2064656372656d656e74206f766572666c6f770000000000600082015250565b7f4552433732313a207472616e7366657220746f206e6f6e20455243373231526560008201527f63656976657220696d706c656d656e7465720000000000000000000000000000602082015250565b7f4552433732313a207472616e736665722066726f6d20696e636f72726563742060008201527f6f776e6572000000000000000000000000000000000000000000000000000000602082015250565b7f4552433732313a20746f6b656e20616c7265616479206d696e74656400000000600082015250565b7f4552433732313a207472616e7366657220746f20746865207a65726f2061646460008201527f7265737300000000000000000000000000000000000000000000000000000000602082015250565b7f4552433732313a20617070726f766520746f2063616c6c657200000000000000600082015250565b7f4552433732313a206f70657261746f7220717565727920666f72206e6f6e657860008201527f697374656e7420746f6b656e0000000000000000000000000000000000000000602082015250565b7f4552433732313a20617070726f76652063616c6c6572206973206e6f74206f7760008201527f6e6572206e6f7220617070726f76656420666f7220616c6c0000000000000000602082015250565b7f4552433732313a2062616c616e636520717565727920666f7220746865207a6560008201527f726f206164647265737300000000000000000000000000000000000000000000602082015250565b7f4552433732313a206f776e657220717565727920666f72206e6f6e657869737460008201527f656e7420746f6b656e0000000000000000000000000000000000000000000000602082015250565b7f45524337323155524953746f726167653a2055524920736574206f66206e6f6e60008201527f6578697374656e7420746f6b656e000000000000000000000000000000000000602082015250565b7f506c65617365207375626d6974207468652061736b696e67207072696365206960008201527f6e206f7264657220746f20636f6d706c65746520746865207075726368617365602082015250565b7f4552433732313a206d696e7420746f20746865207a65726f2061646472657373600082015250565b7f45524337323155524953746f726167653a2055524920717565727920666f722060008201527f6e6f6e6578697374656e7420746f6b656e000000000000000000000000000000602082015250565b7f4f6e6c79206974656d206f776e65722063616e20706572666f726d207468697360008201527f206f7065726174696f6e00000000000000000000000000000000000000000000602082015250565b7f4552433732313a20617070726f76656420717565727920666f72206e6f6e657860008201527f697374656e7420746f6b656e0000000000000000000000000000000000000000602082015250565b7f4552433732314d657461646174613a2055524920717565727920666f72206e6f60008201527f6e6578697374656e7420746f6b656e0000000000000000000000000000000000602082015250565b7f4552433732313a20617070726f76616c20746f2063757272656e74206f776e6560008201527f7200000000000000000000000000000000000000000000000000000000000000602082015250565b7f5072696365206d75737420626520657175616c20746f206c697374696e67207060008201527f7269636500000000000000000000000000000000000000000000000000000000602082015250565b7f4552433732313a207472616e736665722063616c6c6572206973206e6f74206f60008201527f776e6572206e6f7220617070726f766564000000000000000000000000000000602082015250565b7f4f6e6c79206d61726b6574706c616365206f776e65722063616e20757064617460008201527f65206c697374696e672070726963652e00000000000000000000000000000000602082015250565b7f5072696365206d757374206265206174206c6561737420312077656900000000600082015250565b61433981613ab2565b811461434457600080fd5b50565b61435081613ad6565b811461435b57600080fd5b50565b61436781613ae2565b811461437257600080fd5b50565b61437e81613b2e565b811461438957600080fd5b5056fea2646970667358221220697d9fcc88bc02b654d4d82e5d6a55ef42fa06f22c226b0947037af2d4f4db4464736f6c63430008040033",
  "linkReferences": {},
  "deployedLinkReferences": {}
}