{
  "_format": "hh-sol-artifact-1",
  "contractName": "NFTPool",
  "sourceName": "contracts/NFTPool.sol",
  "abi": [
    {
      "inputs": [],
      "stateMutability": "payable",
      "type": "constructor"
    },
    {
      "inputs": [
        {
          "internalType": "uint256",
          "name": "positionId",
          "type": "uint256"
        },
        {
          "internalType": "uint256",
          "name": "newUnlockDate",
          "type": "uint256"
        }
      ],
      "name": "changeUnlockDate",
      "outputs": [],
      "stateMutability": "nonpayable",
      "type": "function"
    },
    {
      "inputs": [
        {
          "internalType": "uint256",
          "name": "positionId",
          "type": "uint256"
        }
      ],
      "name": "closePosition",
      "outputs": [],
      "stateMutability": "nonpayable",
      "type": "function"
    },
    {
      "inputs": [],
      "name": "currentPositionId",
      "outputs": [
        {
          "internalType": "uint256",
          "name": "",
          "type": "uint256"
        }
      ],
      "stateMutability": "view",
      "type": "function"
    },
    {
      "inputs": [
        {
          "internalType": "uint256",
          "name": "numDays",
          "type": "uint256"
        }
      ],
      "name": "getInterestRate",
      "outputs": [
        {
          "internalType": "uint256",
          "name": "",
          "type": "uint256"
        }
      ],
      "stateMutability": "view",
      "type": "function"
    },
    {
      "inputs": [],
      "name": "getLockPeriods",
      "outputs": [
        {
          "internalType": "uint256[]",
          "name": "",
          "type": "uint256[]"
        }
      ],
      "stateMutability": "view",
      "type": "function"
    },
    {
      "inputs": [
        {
          "internalType": "uint256",
          "name": "positionId",
          "type": "uint256"
        }
      ],
      "name": "getPositionById",
      "outputs": [
        {
          "components": [
            {
              "internalType": "uint256",
              "name": "positionId",
              "type": "uint256"
            },
            {
              "internalType": "address",
              "name": "walletAddress",
              "type": "address"
            },
            {
              "internalType": "uint256",
              "name": "createdDate",
              "type": "uint256"
            },
            {
              "internalType": "uint256",
              "name": "unlockDate",
              "type": "uint256"
            },
            {
              "internalType": "uint256",
              "name": "percentInterest",
              "type": "uint256"
            },
            {
              "internalType": "uint256",
              "name": "weiStaked",
              "type": "uint256"
            },
            {
              "internalType": "uint256",
              "name": "weiInterest",
              "type": "uint256"
            },
            {
              "internalType": "bool",
              "name": "open",
              "type": "bool"
            }
          ],
          "internalType": "struct NFTPool.Position",
          "name": "",
          "type": "tuple"
        }
      ],
      "stateMutability": "view",
      "type": "function"
    },
    {
      "inputs": [
        {
          "internalType": "address",
          "name": "walletAddress",
          "type": "address"
        }
      ],
      "name": "getPositionIdsForAddress",
      "outputs": [
        {
          "internalType": "uint256[]",
          "name": "",
          "type": "uint256[]"
        }
      ],
      "stateMutability": "view",
      "type": "function"
    },
    {
      "inputs": [
        {
          "internalType": "uint256",
          "name": "",
          "type": "uint256"
        }
      ],
      "name": "lockPeriods",
      "outputs": [
        {
          "internalType": "uint256",
          "name": "",
          "type": "uint256"
        }
      ],
      "stateMutability": "view",
      "type": "function"
    },
    {
      "inputs": [
        {
          "internalType": "uint256",
          "name": "numDays",
          "type": "uint256"
        },
        {
          "internalType": "uint256",
          "name": "basisPoints",
          "type": "uint256"
        }
      ],
      "name": "modifyLockPeriods",
      "outputs": [],
      "stateMutability": "nonpayable",
      "type": "function"
    },
    {
      "inputs": [],
      "name": "owner",
      "outputs": [
        {
          "internalType": "address",
          "name": "",
          "type": "address"
        }
      ],
      "stateMutability": "view",
      "type": "function"
    },
    {
      "inputs": [
        {
          "internalType": "address",
          "name": "",
          "type": "address"
        },
        {
          "internalType": "uint256",
          "name": "",
          "type": "uint256"
        }
      ],
      "name": "positionIdsByAddress",
      "outputs": [
        {
          "internalType": "uint256",
          "name": "",
          "type": "uint256"
        }
      ],
      "stateMutability": "view",
      "type": "function"
    },
    {
      "inputs": [
        {
          "internalType": "uint256",
          "name": "numDays",
          "type": "uint256"
        }
      ],
      "name": "stakeEther",
      "outputs": [],
      "stateMutability": "payable",
      "type": "function"
    },
    {
      "inputs": [
        {
          "internalType": "uint256",
          "name": "",
          "type": "uint256"
        }
      ],
      "name": "tiers",
      "outputs": [
        {
          "internalType": "uint256",
          "name": "",
          "type": "uint256"
        }
      ],
      "stateMutability": "view",
      "type": "function"
    }
  ],
  "bytecode": "0x6080604052336000806101000a81548173ffffffffffffffffffffffffffffffffffffffff021916908373ffffffffffffffffffffffffffffffffffffffff16021790555060006009819055506102bc600c6000601e8152602001908152602001600020819055506103e8600c6000605a8152602001908152602001600020819055506104b0600c600060b4815260200190815260200160002081905550600d601e9080600181540180825580915050600190039060005260206000200160009091909190915055600d605a9080600181540180825580915050600190039060005260206000200160009091909190915055600d60b490806001815401808255809150506001900390600052602060002001600090919091909150556113ab8061012a6000396000f3fe6080604052600436106100c25760003560e01c80634c8f2a781161007f578063b0f0475b11610059578063b0f0475b146102a2578063b838ec86146102cb578063c7c9d05514610308578063e4f9084114610331576100c2565b80634c8f2a78146102115780638da5cb5b1461024e578063a126d60114610279576100c2565b8063039af9eb146100c75780630c196a74146101045780631131c8cd1461014157806340d98a441461016c57806341ee13be146101a957806345eae373146101d4575b600080fd5b3480156100d357600080fd5b506100ee60048036038101906100e99190610cd2565b61034d565b6040516100fb9190611042565b60405180910390f35b34801561011057600080fd5b5061012b60048036038101906101269190610cd2565b610365565b6040516101389190611042565b60405180910390f35b34801561014d57600080fd5b50610156610382565b6040516101639190611042565b60405180910390f35b34801561017857600080fd5b50610193600480360381019061018e9190610c6d565b610388565b6040516101a09190610f64565b60405180910390f35b3480156101b557600080fd5b506101be61041f565b6040516101cb9190610f64565b60405180910390f35b3480156101e057600080fd5b506101fb60048036038101906101f69190610c96565b610477565b6040516102089190611042565b60405180910390f35b34801561021d57600080fd5b5061023860048036038101906102339190610cd2565b6104a8565b6040516102459190611042565b60405180910390f35b34801561025a57600080fd5b506102636104cc565b6040516102709190610f49565b60405180910390f35b34801561028557600080fd5b506102a0600480360381019061029b9190610cd2565b6104f0565b005b3480156102ae57600080fd5b506102c960048036038101906102c49190610cfb565b610735565b005b3480156102d757600080fd5b506102f260048036038101906102ed9190610cd2565b610808565b6040516102ff9190611026565b60405180910390f35b34801561031457600080fd5b5061032f600480360381019061032a9190610cfb565b6108e3565b005b61034b60048036038101906103469190610cd2565b610990565b005b600c6020528060005260406000206000915090505481565b6000600c6000838152602001908152602001600020549050919050565b60095481565b6060600b60008373ffffffffffffffffffffffffffffffffffffffff1673ffffffffffffffffffffffffffffffffffffffff16815260200190815260200160002080548060200260200160405190810160405280929190818152602001828054801561041357602002820191906000526020600020905b8154815260200190600101908083116103ff575b50505050509050919050565b6060600d80548060200260200160405190810160405280929190818152602001828054801561046d57602002820191906000526020600020905b815481526020019060010190808311610459575b5050505050905090565b600b602052816000526040600020818154811061049357600080fd5b90600052602060002001600091509150505481565b600d81815481106104b857600080fd5b906000526020600020016000915090505481565b60008054906101000a900473ffffffffffffffffffffffffffffffffffffffff1681565b3373ffffffffffffffffffffffffffffffffffffffff16600a600083815260200190815260200160002060010160009054906101000a900473ffffffffffffffffffffffffffffffffffffffff1673ffffffffffffffffffffffffffffffffffffffff1614610594576040517f08c379a000000000000000000000000000000000000000000000000000000000815260040161058b90610fc6565b60405180910390fd5b60011515600a600083815260200190815260200160002060070160009054906101000a900460ff161515146105fe576040517f08c379a00000000000000000000000000000000000000000000000000000000081526004016105f590611006565b60405180910390fd5b6000600a600083815260200190815260200160002060070160006101000a81548160ff021916908315150217905550600a6000828152602001908152602001600020600301544211156106d4576000600a600083815260200190815260200160002060060154600a60008481526020019081526020016000206005015461068591906110a7565b90503373ffffffffffffffffffffffffffffffffffffffff166108fc829081150290604051600060405180830381858888f193505050501580156106cd573d6000803e3d6000fd5b5050610732565b3373ffffffffffffffffffffffffffffffffffffffff166108fc600a6000848152602001908152602001600020600501549081150290604051600060405180830381858888f19350505050158015610730573d6000803e3d6000fd5b505b50565b3373ffffffffffffffffffffffffffffffffffffffff1660008054906101000a900473ffffffffffffffffffffffffffffffffffffffff1673ffffffffffffffffffffffffffffffffffffffff16146107c3576040517f08c379a00000000000000000000000000000000000000000000000000000000081526004016107ba90610fa6565b60405180910390fd5b80600c600084815260200190815260200160002081905550600d8290806001815401808255809150506001900390600052602060002001600090919091909150555050565b610810610be6565b600a600083815260200190815260200160002060405180610100016040529081600082015481526020016001820160009054906101000a900473ffffffffffffffffffffffffffffffffffffffff1673ffffffffffffffffffffffffffffffffffffffff1673ffffffffffffffffffffffffffffffffffffffff16815260200160028201548152602001600382015481526020016004820154815260200160058201548152602001600682015481526020016007820160009054906101000a900460ff1615151515815250509050919050565b3373ffffffffffffffffffffffffffffffffffffffff1660008054906101000a900473ffffffffffffffffffffffffffffffffffffffff1673ffffffffffffffffffffffffffffffffffffffff1614610971576040517f08c379a000000000000000000000000000000000000000000000000000000000815260040161096890610fe6565b60405180910390fd5b80600a6000848152602001908152602001600020600301819055505050565b6000600c600083815260200190815260200160002054116109e6576040517f08c379a00000000000000000000000000000000000000000000000000000000081526004016109dd90610f86565b60405180910390fd5b60405180610100016040528060095481526020013373ffffffffffffffffffffffffffffffffffffffff1681526020014281526020016201518083610a2b919061112e565b42610a3691906110a7565b8152602001600c6000848152602001908152602001600020548152602001348152602001610a77600c60008581526020019081526020016000205434610bc3565b815260200160011515815250600a600060095481526020019081526020016000206000820151816000015560208201518160010160006101000a81548173ffffffffffffffffffffffffffffffffffffffff021916908373ffffffffffffffffffffffffffffffffffffffff16021790555060408201518160020155606082015181600301556080820151816004015560a0820151816005015560c0820151816006015560e08201518160070160006101000a81548160ff021916908315150217905550905050600b60003373ffffffffffffffffffffffffffffffffffffffff1673ffffffffffffffffffffffffffffffffffffffff1681526020019081526020016000206009549080600181540180825580915050600190039060005260206000200160009091909190915055600160096000828254610bb991906110a7565b9250508190555050565b60006127108284610bd4919061112e565b610bde91906110fd565b905092915050565b60405180610100016040528060008152602001600073ffffffffffffffffffffffffffffffffffffffff16815260200160008152602001600081526020016000815260200160008152602001600081526020016000151581525090565b600081359050610c5281611347565b92915050565b600081359050610c678161135e565b92915050565b600060208284031215610c7f57600080fd5b6000610c8d84828501610c43565b91505092915050565b60008060408385031215610ca957600080fd5b6000610cb785828601610c43565b9250506020610cc885828601610c58565b9150509250929050565b600060208284031215610ce457600080fd5b6000610cf284828501610c58565b91505092915050565b60008060408385031215610d0e57600080fd5b6000610d1c85828601610c58565b9250506020610d2d85828601610c58565b9150509250929050565b6000610d438383610f2b565b60208301905092915050565b610d5881611188565b82525050565b610d6781611188565b82525050565b6000610d788261106d565b610d828185611085565b9350610d8d8361105d565b8060005b83811015610dbe578151610da58882610d37565b9750610db083611078565b925050600181019050610d91565b5085935050505092915050565b610dd48161119a565b82525050565b6000610de7601183611096565b9150610df28261122e565b602082019050919050565b6000610e0a602183611096565b9150610e1582611257565b604082019050919050565b6000610e2d602983611096565b9150610e38826112a6565b604082019050919050565b6000610e50602083611096565b9150610e5b826112f5565b602082019050919050565b6000610e73601283611096565b9150610e7e8261131e565b602082019050919050565b61010082016000820151610ea06000850182610f2b565b506020820151610eb36020850182610d4f565b506040820151610ec66040850182610f2b565b506060820151610ed96060850182610f2b565b506080820151610eec6080850182610f2b565b5060a0820151610eff60a0850182610f2b565b5060c0820151610f1260c0850182610f2b565b5060e0820151610f2560e0850182610dcb565b50505050565b610f34816111c6565b82525050565b610f43816111c6565b82525050565b6000602082019050610f5e6000830184610d5e565b92915050565b60006020820190508181036000830152610f7e8184610d6d565b905092915050565b60006020820190508181036000830152610f9f81610dda565b9050919050565b60006020820190508181036000830152610fbf81610dfd565b9050919050565b60006020820190508181036000830152610fdf81610e20565b9050919050565b60006020820190508181036000830152610fff81610e43565b9050919050565b6000602082019050818103600083015261101f81610e66565b9050919050565b60006101008201905061103c6000830184610e89565b92915050565b60006020820190506110576000830184610f3a565b92915050565b6000819050602082019050919050565b600081519050919050565b6000602082019050919050565b600082825260208201905092915050565b600082825260208201905092915050565b60006110b2826111c6565b91506110bd836111c6565b9250827fffffffffffffffffffffffffffffffffffffffffffffffffffffffffffffffff038211156110f2576110f16111d0565b5b828201905092915050565b6000611108826111c6565b9150611113836111c6565b925082611123576111226111ff565b5b828204905092915050565b6000611139826111c6565b9150611144836111c6565b9250817fffffffffffffffffffffffffffffffffffffffffffffffffffffffffffffffff048311821515161561117d5761117c6111d0565b5b828202905092915050565b6000611193826111a6565b9050919050565b60008115159050919050565b600073ffffffffffffffffffffffffffffffffffffffff82169050919050565b6000819050919050565b7f4e487b7100000000000000000000000000000000000000000000000000000000600052601160045260246000fd5b7f4e487b7100000000000000000000000000000000000000000000000000000000600052601260045260246000fd5b7f4d617070696e67206e6f7420666f756e64000000000000000000000000000000600082015250565b7f4f6e6c79206f776e6572206d6f64696679207374616b696e6720706572696f6460008201527f7300000000000000000000000000000000000000000000000000000000000000602082015250565b7f4f6e6c7920706f736974696f6e2063726561746f72206d6179206d6f6469667960008201527f20706f736974696f6e0000000000000000000000000000000000000000000000602082015250565b7f4f776e6572206d6179206d6f64696679207374616b696e6720706572696f6473600082015250565b7f506f736974696f6e20697320636c6f7365640000000000000000000000000000600082015250565b61135081611188565b811461135b57600080fd5b50565b611367816111c6565b811461137257600080fd5b5056fea26469706673582212207969ed753f7fce23008dbc6bfa5b425de958d72a7d22ff11a1d2cf306c646a1364736f6c63430008040033",
  "linkReferences": {},
  "deployedLinkReferences": {}
}