{
  "_format": "hh-sol-artifact-1",
  "contractName": "MyNFTLiquidityPool",
  "sourceName": "contracts/NFTStackingPool.sol",
  "abi": [
    {
      "inputs": [
        {
          "internalType": "address",
          "name": "contractAddress",
          "type": "address"
        }
      ],
      "stateMutability": "nonpayable",
      "type": "constructor"
    },
    {
      "anonymous": false,
      "inputs": [
        {
          "indexed": true,
          "internalType": "address",
          "name": "owner",
          "type": "address"
        },
        {
          "indexed": true,
          "internalType": "address",
          "name": "spender",
          "type": "address"
        },
        {
          "indexed": false,
          "internalType": "uint256",
          "name": "value",
          "type": "uint256"
        }
      ],
      "name": "Approval",
      "type": "event"
    },
    {
      "anonymous": false,
      "inputs": [
        {
          "indexed": true,
          "internalType": "address",
          "name": "from",
          "type": "address"
        },
        {
          "indexed": true,
          "internalType": "address",
          "name": "to",
          "type": "address"
        },
        {
          "indexed": false,
          "internalType": "uint256",
          "name": "value",
          "type": "uint256"
        }
      ],
      "name": "Transfer",
      "type": "event"
    },
    {
      "inputs": [],
      "name": "REWARD_PER_BLOCK",
      "outputs": [
        {
          "internalType": "uint256",
          "name": "",
          "type": "uint256"
        }
      ],
      "stateMutability": "view",
      "type": "function"
    },
    {
      "inputs": [
        {
          "internalType": "address",
          "name": "owner",
          "type": "address"
        },
        {
          "internalType": "address",
          "name": "spender",
          "type": "address"
        }
      ],
      "name": "allowance",
      "outputs": [
        {
          "internalType": "uint256",
          "name": "",
          "type": "uint256"
        }
      ],
      "stateMutability": "view",
      "type": "function"
    },
    {
      "inputs": [
        {
          "internalType": "address",
          "name": "spender",
          "type": "address"
        },
        {
          "internalType": "uint256",
          "name": "amount",
          "type": "uint256"
        }
      ],
      "name": "approve",
      "outputs": [
        {
          "internalType": "bool",
          "name": "",
          "type": "bool"
        }
      ],
      "stateMutability": "nonpayable",
      "type": "function"
    },
    {
      "inputs": [
        {
          "internalType": "address",
          "name": "account",
          "type": "address"
        }
      ],
      "name": "balanceOf",
      "outputs": [
        {
          "internalType": "uint256",
          "name": "",
          "type": "uint256"
        }
      ],
      "stateMutability": "view",
      "type": "function"
    },
    {
      "inputs": [
        {
          "internalType": "address",
          "name": "beneficiary",
          "type": "address"
        }
      ],
      "name": "calculateReward",
      "outputs": [
        {
          "internalType": "uint256",
          "name": "",
          "type": "uint256"
        }
      ],
      "stateMutability": "view",
      "type": "function"
    },
    {
      "inputs": [
        {
          "internalType": "address",
          "name": "",
          "type": "address"
        }
      ],
      "name": "checkpoints",
      "outputs": [
        {
          "internalType": "uint256",
          "name": "",
          "type": "uint256"
        }
      ],
      "stateMutability": "view",
      "type": "function"
    },
    {
      "inputs": [
        {
          "internalType": "address",
          "name": "beneficiary",
          "type": "address"
        }
      ],
      "name": "collect",
      "outputs": [],
      "stateMutability": "nonpayable",
      "type": "function"
    },
    {
      "inputs": [],
      "name": "decimals",
      "outputs": [
        {
          "internalType": "uint8",
          "name": "",
          "type": "uint8"
        }
      ],
      "stateMutability": "view",
      "type": "function"
    },
    {
      "inputs": [
        {
          "internalType": "address",
          "name": "spender",
          "type": "address"
        },
        {
          "internalType": "uint256",
          "name": "subtractedValue",
          "type": "uint256"
        }
      ],
      "name": "decreaseAllowance",
      "outputs": [
        {
          "internalType": "bool",
          "name": "",
          "type": "bool"
        }
      ],
      "stateMutability": "nonpayable",
      "type": "function"
    },
    {
      "inputs": [
        {
          "internalType": "uint256",
          "name": "tokenId",
          "type": "uint256"
        }
      ],
      "name": "deposit",
      "outputs": [],
      "stateMutability": "nonpayable",
      "type": "function"
    },
    {
      "inputs": [
        {
          "internalType": "address",
          "name": "",
          "type": "address"
        }
      ],
      "name": "deposited_tokens",
      "outputs": [
        {
          "internalType": "uint256",
          "name": "",
          "type": "uint256"
        }
      ],
      "stateMutability": "view",
      "type": "function"
    },
    {
      "inputs": [
        {
          "internalType": "address",
          "name": "",
          "type": "address"
        }
      ],
      "name": "has_deposited",
      "outputs": [
        {
          "internalType": "bool",
          "name": "",
          "type": "bool"
        }
      ],
      "stateMutability": "view",
      "type": "function"
    },
    {
      "inputs": [
        {
          "internalType": "address",
          "name": "spender",
          "type": "address"
        },
        {
          "internalType": "uint256",
          "name": "addedValue",
          "type": "uint256"
        }
      ],
      "name": "increaseAllowance",
      "outputs": [
        {
          "internalType": "bool",
          "name": "",
          "type": "bool"
        }
      ],
      "stateMutability": "nonpayable",
      "type": "function"
    },
    {
      "inputs": [],
      "name": "my_token",
      "outputs": [
        {
          "internalType": "contract ERC721",
          "name": "",
          "type": "address"
        }
      ],
      "stateMutability": "view",
      "type": "function"
    },
    {
      "inputs": [],
      "name": "name",
      "outputs": [
        {
          "internalType": "string",
          "name": "",
          "type": "string"
        }
      ],
      "stateMutability": "view",
      "type": "function"
    },
    {
      "inputs": [],
      "name": "symbol",
      "outputs": [
        {
          "internalType": "string",
          "name": "",
          "type": "string"
        }
      ],
      "stateMutability": "view",
      "type": "function"
    },
    {
      "inputs": [],
      "name": "totalSupply",
      "outputs": [
        {
          "internalType": "uint256",
          "name": "",
          "type": "uint256"
        }
      ],
      "stateMutability": "view",
      "type": "function"
    },
    {
      "inputs": [
        {
          "internalType": "address",
          "name": "to",
          "type": "address"
        },
        {
          "internalType": "uint256",
          "name": "amount",
          "type": "uint256"
        }
      ],
      "name": "transfer",
      "outputs": [
        {
          "internalType": "bool",
          "name": "",
          "type": "bool"
        }
      ],
      "stateMutability": "nonpayable",
      "type": "function"
    },
    {
      "inputs": [
        {
          "internalType": "address",
          "name": "from",
          "type": "address"
        },
        {
          "internalType": "address",
          "name": "to",
          "type": "address"
        },
        {
          "internalType": "uint256",
          "name": "amount",
          "type": "uint256"
        }
      ],
      "name": "transferFrom",
      "outputs": [
        {
          "internalType": "bool",
          "name": "",
          "type": "bool"
        }
      ],
      "stateMutability": "nonpayable",
      "type": "function"
    },
    {
      "inputs": [],
      "name": "withdraw",
      "outputs": [],
      "stateMutability": "nonpayable",
      "type": "function"
    }
  ],
  "bytecode": "0x608060405267016345785d8a00006009553480156200001d57600080fd5b5060405162002255380380620022558339818101604052810190620000439190620001f2565b6040518060400160405280601081526020017f4d79205374616b696e6720546f6b656e000000000000000000000000000000008152506040518060400160405280600481526020017f4d595354000000000000000000000000000000000000000000000000000000008152508160039080519060200190620000c79291906200012b565b508060049080519060200190620000e09291906200012b565b50505080600860006101000a81548173ffffffffffffffffffffffffffffffffffffffff021916908373ffffffffffffffffffffffffffffffffffffffff16021790555050620002d1565b828054620001399062000252565b90600052602060002090601f0160209004810192826200015d5760008555620001a9565b82601f106200017857805160ff1916838001178555620001a9565b82800160010185558215620001a9579182015b82811115620001a85782518255916020019190600101906200018b565b5b509050620001b89190620001bc565b5090565b5b80821115620001d7576000816000905550600101620001bd565b5090565b600081519050620001ec81620002b7565b92915050565b6000602082840312156200020557600080fd5b60006200021584828501620001db565b91505092915050565b60006200022b8262000232565b9050919050565b600073ffffffffffffffffffffffffffffffffffffffff82169050919050565b600060028204905060018216806200026b57607f821691505b6020821081141562000282576200028162000288565b5b50919050565b7f4e487b7100000000000000000000000000000000000000000000000000000000600052602260045260246000fd5b620002c2816200021e565b8114620002ce57600080fd5b50565b611f7480620002e16000396000f3fe608060405234801561001057600080fd5b506004361061012c5760003560e01c80635db28484116100ad578063a9059cbb11610071578063a9059cbb1461035b578063b6b55f251461038b578063d82e3962146103a7578063dbb51d6e146103d7578063dd62ed3e146104075761012c565b80635db284841461028f57806370a08231146102bf57806395d89b41146102ef578063975532dc1461030d578063a457c2d71461032b5761012c565b806330359951116100f457806330359951146101e9578063313ce5671461020757806339509351146102255780633ccfd60b146102555780633f48d0101461025f5761012c565b806306ec16f81461013157806306fdde031461014d578063095ea7b31461016b57806318160ddd1461019b57806323b872dd146101b9575b600080fd5b61014b600480360381019061014691906114b0565b610437565b005b610155610496565b6040516101629190611864565b60405180910390f35b6101856004803603810190610180919061158d565b610528565b604051610192919061182e565b60405180910390f35b6101a361054b565b6040516101b091906119e6565b60405180910390f35b6101d360048036038101906101ce919061153e565b610555565b6040516101e0919061182e565b60405180910390f35b6101f1610584565b6040516101fe9190611849565b60405180910390f35b61020f6105aa565b60405161021c9190611a01565b60405180910390f35b61023f600480360381019061023a919061158d565b6105b3565b60405161024c919061182e565b60405180910390f35b61025d6105ea565b005b610279600480360381019061027491906114b0565b6107a9565b604051610286919061182e565b60405180910390f35b6102a960048036038101906102a491906114b0565b6107c9565b6040516102b691906119e6565b60405180910390f35b6102d960048036038101906102d491906114b0565b6107e1565b6040516102e691906119e6565b60405180910390f35b6102f7610829565b6040516103049190611864565b60405180910390f35b6103156108bb565b60405161032291906119e6565b60405180910390f35b6103456004803603810190610340919061158d565b6108c1565b604051610352919061182e565b60405180910390f35b6103756004803603810190610370919061158d565b610938565b604051610382919061182e565b60405180910390f35b6103a560048036038101906103a091906115c9565b61095b565b005b6103c160048036038101906103bc91906114b0565b610cc6565b6040516103ce91906119e6565b60405180910390f35b6103f160048036038101906103ec91906114b0565b610d88565b6040516103fe91906119e6565b60405180910390f35b610421600480360381019061041c9190611502565b610da0565b60405161042e91906119e6565b60405180910390f35b600061044282610cc6565b905043600560008473ffffffffffffffffffffffffffffffffffffffff1673ffffffffffffffffffffffffffffffffffffffff168152602001908152602001600020819055506104923382610e27565b5050565b6060600380546104a590611bc8565b80601f01602080910402602001604051908101604052809291908181526020018280546104d190611bc8565b801561051e5780601f106104f35761010080835404028352916020019161051e565b820191906000526020600020905b81548152906001019060200180831161050157829003601f168201915b5050505050905090565b600080610533610f87565b9050610540818585610f8f565b600191505092915050565b6000600254905090565b600080610560610f87565b905061056d85828561115a565b6105788585856111e6565b60019150509392505050565b600860009054906101000a900473ffffffffffffffffffffffffffffffffffffffff1681565b60006012905090565b6000806105be610f87565b90506105df8185856105d08589610da0565b6105da9190611a38565b610f8f565b600191505092915050565b600760003373ffffffffffffffffffffffffffffffffffffffff1673ffffffffffffffffffffffffffffffffffffffff16815260200190815260200160002060009054906101000a900460ff16610676576040517f08c379a000000000000000000000000000000000000000000000000000000000815260040161066d906118e6565b60405180910390fd5b61067f33610437565b600860009054906101000a900473ffffffffffffffffffffffffffffffffffffffff1673ffffffffffffffffffffffffffffffffffffffff166323b872dd3033600660003373ffffffffffffffffffffffffffffffffffffffff1673ffffffffffffffffffffffffffffffffffffffff168152602001908152602001600020546040518463ffffffff1660e01b815260040161071d939291906117f7565b600060405180830381600087803b15801561073757600080fd5b505af115801561074b573d6000803e3d6000fd5b505050506000600760003373ffffffffffffffffffffffffffffffffffffffff1673ffffffffffffffffffffffffffffffffffffffff16815260200190815260200160002060006101000a81548160ff021916908315150217905550565b60076020528060005260406000206000915054906101000a900460ff1681565b60066020528060005260406000206000915090505481565b60008060008373ffffffffffffffffffffffffffffffffffffffff1673ffffffffffffffffffffffffffffffffffffffff168152602001908152602001600020549050919050565b60606004805461083890611bc8565b80601f016020809104026020016040519081016040528092919081815260200182805461086490611bc8565b80156108b15780601f10610886576101008083540402835291602001916108b1565b820191906000526020600020905b81548152906001019060200180831161089457829003601f168201915b5050505050905090565b60095481565b6000806108cc610f87565b905060006108da8286610da0565b90508381101561091f576040517f08c379a0000000000000000000000000000000000000000000000000000000008152600401610916906119a6565b60405180910390fd5b61092c8286868403610f8f565b60019250505092915050565b600080610943610f87565b90506109508185856111e6565b600191505092915050565b600860009054906101000a900473ffffffffffffffffffffffffffffffffffffffff1673ffffffffffffffffffffffffffffffffffffffff16636352211e826040518263ffffffff1660e01b81526004016109b691906119e6565b60206040518083038186803b1580156109ce57600080fd5b505afa1580156109e2573d6000803e3d6000fd5b505050506040513d601f19601f82011682018060405250810190610a0691906114d9565b73ffffffffffffffffffffffffffffffffffffffff163373ffffffffffffffffffffffffffffffffffffffff1614610a73576040517f08c379a0000000000000000000000000000000000000000000000000000000008152600401610a6a90611906565b60405180910390fd5b600760003373ffffffffffffffffffffffffffffffffffffffff1673ffffffffffffffffffffffffffffffffffffffff16815260200190815260200160002060009054906101000a900460ff1615610b00576040517f08c379a0000000000000000000000000000000000000000000000000000000008152600401610af790611946565b60405180910390fd5b6000600560003373ffffffffffffffffffffffffffffffffffffffff1673ffffffffffffffffffffffffffffffffffffffff168152602001908152602001600020541415610b8d5743600560003373ffffffffffffffffffffffffffffffffffffffff1673ffffffffffffffffffffffffffffffffffffffff168152602001908152602001600020819055505b610b9633610437565b600860009054906101000a900473ffffffffffffffffffffffffffffffffffffffff1673ffffffffffffffffffffffffffffffffffffffff166323b872dd3330846040518463ffffffff1660e01b8152600401610bf5939291906117f7565b600060405180830381600087803b158015610c0f57600080fd5b505af1158015610c23573d6000803e3d6000fd5b5050505080600660003373ffffffffffffffffffffffffffffffffffffffff1673ffffffffffffffffffffffffffffffffffffffff168152602001908152602001600020819055506001600760003373ffffffffffffffffffffffffffffffffffffffff1673ffffffffffffffffffffffffffffffffffffffff16815260200190815260200160002060006101000a81548160ff02191690831515021790555050565b6000600760008373ffffffffffffffffffffffffffffffffffffffff1673ffffffffffffffffffffffffffffffffffffffff16815260200190815260200160002060009054906101000a900460ff16610d225760009050610d83565b6000600560008473ffffffffffffffffffffffffffffffffffffffff1673ffffffffffffffffffffffffffffffffffffffff1681526020019081526020016000205490508043610d729190611ae8565b600954610d7f9190611a8e565b9150505b919050565b60056020528060005260406000206000915090505481565b6000600160008473ffffffffffffffffffffffffffffffffffffffff1673ffffffffffffffffffffffffffffffffffffffff16815260200190815260200160002060008373ffffffffffffffffffffffffffffffffffffffff1673ffffffffffffffffffffffffffffffffffffffff16815260200190815260200160002054905092915050565b600073ffffffffffffffffffffffffffffffffffffffff168273ffffffffffffffffffffffffffffffffffffffff161415610e97576040517f08c379a0000000000000000000000000000000000000000000000000000000008152600401610e8e906119c6565b60405180910390fd5b610ea360008383611467565b8060026000828254610eb59190611a38565b92505081905550806000808473ffffffffffffffffffffffffffffffffffffffff1673ffffffffffffffffffffffffffffffffffffffff1681526020019081526020016000206000828254610f0a9190611a38565b925050819055508173ffffffffffffffffffffffffffffffffffffffff16600073ffffffffffffffffffffffffffffffffffffffff167fddf252ad1be2c89b69c2b068fc378daa952ba7f163c4a11628f55a4df523b3ef83604051610f6f91906119e6565b60405180910390a3610f836000838361146c565b5050565b600033905090565b600073ffffffffffffffffffffffffffffffffffffffff168373ffffffffffffffffffffffffffffffffffffffff161415610fff576040517f08c379a0000000000000000000000000000000000000000000000000000000008152600401610ff690611986565b60405180910390fd5b600073ffffffffffffffffffffffffffffffffffffffff168273ffffffffffffffffffffffffffffffffffffffff16141561106f576040517f08c379a0000000000000000000000000000000000000000000000000000000008152600401611066906118a6565b60405180910390fd5b80600160008573ffffffffffffffffffffffffffffffffffffffff1673ffffffffffffffffffffffffffffffffffffffff16815260200190815260200160002060008473ffffffffffffffffffffffffffffffffffffffff1673ffffffffffffffffffffffffffffffffffffffff168152602001908152602001600020819055508173ffffffffffffffffffffffffffffffffffffffff168373ffffffffffffffffffffffffffffffffffffffff167f8c5be1e5ebec7d5bd14f71427d1e84f3dd0314c0f7b2291e5b200ac8c7c3b9258360405161114d91906119e6565b60405180910390a3505050565b60006111668484610da0565b90507fffffffffffffffffffffffffffffffffffffffffffffffffffffffffffffffff81146111e057818110156111d2576040517f08c379a00000000000000000000000000000000000000000000000000000000081526004016111c9906118c6565b60405180910390fd5b6111df8484848403610f8f565b5b50505050565b600073ffffffffffffffffffffffffffffffffffffffff168373ffffffffffffffffffffffffffffffffffffffff161415611256576040517f08c379a000000000000000000000000000000000000000000000000000000000815260040161124d90611966565b60405180910390fd5b600073ffffffffffffffffffffffffffffffffffffffff168273ffffffffffffffffffffffffffffffffffffffff1614156112c6576040517f08c379a00000000000000000000000000000000000000000000000000000000081526004016112bd90611886565b60405180910390fd5b6112d1838383611467565b60008060008573ffffffffffffffffffffffffffffffffffffffff1673ffffffffffffffffffffffffffffffffffffffff16815260200190815260200160002054905081811015611357576040517f08c379a000000000000000000000000000000000000000000000000000000000815260040161134e90611926565b60405180910390fd5b8181036000808673ffffffffffffffffffffffffffffffffffffffff1673ffffffffffffffffffffffffffffffffffffffff16815260200190815260200160002081905550816000808573ffffffffffffffffffffffffffffffffffffffff1673ffffffffffffffffffffffffffffffffffffffff16815260200190815260200160002060008282546113ea9190611a38565b925050819055508273ffffffffffffffffffffffffffffffffffffffff168473ffffffffffffffffffffffffffffffffffffffff167fddf252ad1be2c89b69c2b068fc378daa952ba7f163c4a11628f55a4df523b3ef8460405161144e91906119e6565b60405180910390a361146184848461146c565b50505050565b505050565b505050565b60008135905061148081611f10565b92915050565b60008151905061149581611f10565b92915050565b6000813590506114aa81611f27565b92915050565b6000602082840312156114c257600080fd5b60006114d084828501611471565b91505092915050565b6000602082840312156114eb57600080fd5b60006114f984828501611486565b91505092915050565b6000806040838503121561151557600080fd5b600061152385828601611471565b925050602061153485828601611471565b9150509250929050565b60008060006060848603121561155357600080fd5b600061156186828701611471565b935050602061157286828701611471565b92505060406115838682870161149b565b9150509250925092565b600080604083850312156115a057600080fd5b60006115ae85828601611471565b92505060206115bf8582860161149b565b9150509250929050565b6000602082840312156115db57600080fd5b60006115e98482850161149b565b91505092915050565b6115fb81611b1c565b82525050565b61160a81611b2e565b82525050565b61161981611b71565b82525050565b600061162a82611a1c565b6116348185611a27565b9350611644818560208601611b95565b61164d81611c58565b840191505092915050565b6000611665602383611a27565b915061167082611c69565b604082019050919050565b6000611688602283611a27565b915061169382611cb8565b604082019050919050565b60006116ab601d83611a27565b91506116b682611d07565b602082019050919050565b60006116ce601583611a27565b91506116d982611d30565b602082019050919050565b60006116f1601483611a27565b91506116fc82611d59565b602082019050919050565b6000611714602683611a27565b915061171f82611d82565b604082019050919050565b6000611737601883611a27565b915061174282611dd1565b602082019050919050565b600061175a602583611a27565b915061176582611dfa565b604082019050919050565b600061177d602483611a27565b915061178882611e49565b604082019050919050565b60006117a0602583611a27565b91506117ab82611e98565b604082019050919050565b60006117c3601f83611a27565b91506117ce82611ee7565b602082019050919050565b6117e281611b5a565b82525050565b6117f181611b64565b82525050565b600060608201905061180c60008301866115f2565b61181960208301856115f2565b61182660408301846117d9565b949350505050565b60006020820190506118436000830184611601565b92915050565b600060208201905061185e6000830184611610565b92915050565b6000602082019050818103600083015261187e818461161f565b905092915050565b6000602082019050818103600083015261189f81611658565b9050919050565b600060208201905081810360008301526118bf8161167b565b9050919050565b600060208201905081810360008301526118df8161169e565b9050919050565b600060208201905081810360008301526118ff816116c1565b9050919050565b6000602082019050818103600083015261191f816116e4565b9050919050565b6000602082019050818103600083015261193f81611707565b9050919050565b6000602082019050818103600083015261195f8161172a565b9050919050565b6000602082019050818103600083015261197f8161174d565b9050919050565b6000602082019050818103600083015261199f81611770565b9050919050565b600060208201905081810360008301526119bf81611793565b9050919050565b600060208201905081810360008301526119df816117b6565b9050919050565b60006020820190506119fb60008301846117d9565b92915050565b6000602082019050611a1660008301846117e8565b92915050565b600081519050919050565b600082825260208201905092915050565b6000611a4382611b5a565b9150611a4e83611b5a565b9250827fffffffffffffffffffffffffffffffffffffffffffffffffffffffffffffffff03821115611a8357611a82611bfa565b5b828201905092915050565b6000611a9982611b5a565b9150611aa483611b5a565b9250817fffffffffffffffffffffffffffffffffffffffffffffffffffffffffffffffff0483118215151615611add57611adc611bfa565b5b828202905092915050565b6000611af382611b5a565b9150611afe83611b5a565b925082821015611b1157611b10611bfa565b5b828203905092915050565b6000611b2782611b3a565b9050919050565b60008115159050919050565b600073ffffffffffffffffffffffffffffffffffffffff82169050919050565b6000819050919050565b600060ff82169050919050565b6000611b7c82611b83565b9050919050565b6000611b8e82611b3a565b9050919050565b60005b83811015611bb3578082015181840152602081019050611b98565b83811115611bc2576000848401525b50505050565b60006002820490506001821680611be057607f821691505b60208210811415611bf457611bf3611c29565b5b50919050565b7f4e487b7100000000000000000000000000000000000000000000000000000000600052601160045260246000fd5b7f4e487b7100000000000000000000000000000000000000000000000000000000600052602260045260246000fd5b6000601f19601f8301169050919050565b7f45524332303a207472616e7366657220746f20746865207a65726f206164647260008201527f6573730000000000000000000000000000000000000000000000000000000000602082015250565b7f45524332303a20617070726f766520746f20746865207a65726f20616464726560008201527f7373000000000000000000000000000000000000000000000000000000000000602082015250565b7f45524332303a20696e73756666696369656e7420616c6c6f77616e6365000000600082015250565b7f4e6f20746f6b656e7320746f2077697468646172770000000000000000000000600082015250565b7f53656e646572206d757374206265206f776e6572000000000000000000000000600082015250565b7f45524332303a207472616e7366657220616d6f756e742065786365656473206260008201527f616c616e63650000000000000000000000000000000000000000000000000000602082015250565b7f53656e64657220616c7265616479206465706f73697465640000000000000000600082015250565b7f45524332303a207472616e736665722066726f6d20746865207a65726f20616460008201527f6472657373000000000000000000000000000000000000000000000000000000602082015250565b7f45524332303a20617070726f76652066726f6d20746865207a65726f2061646460008201527f7265737300000000000000000000000000000000000000000000000000000000602082015250565b7f45524332303a2064656372656173656420616c6c6f77616e63652062656c6f7760008201527f207a65726f000000000000000000000000000000000000000000000000000000602082015250565b7f45524332303a206d696e7420746f20746865207a65726f206164647265737300600082015250565b611f1981611b1c565b8114611f2457600080fd5b50565b611f3081611b5a565b8114611f3b57600080fd5b5056fea2646970667358221220e00a739e1365eee606adfc7bce34d12cdb4b0c98a4c3af313be620b81bb8d4f164736f6c63430008040033",
  "linkReferences": {},
  "deployedLinkReferences": {}
}